:020000040000FA
:1000000000000420C9030000C1030000C503000074
:10001000C1030000C1030000C10300000000000094
:10002000000000000000000000000000C10300000C
:10003000C103000000000000C1030000C103000074
:10004000C1030000C1030000C1030000C1030000A0
:10005000C1030000C1030000C1030000C103000090
:10006000C1030000C1030000000000000000000008
:100070000000000000000000000000000000000080
:100080000000000000000000000000000000000070
:100090000000000000000000000000000000000060
:1000A0000000000000000000000000000000000050
:1003C000FFE7FEE7FFE7FEE700F002F800F01BF8AA
:1003D00040F20000C0F200004EF60851CEF20001DB
:1003E000086040F20001C2F2000147F64000C0F28E
:1003F0007D100860704700004FF004044FF00505C1
:10040000A44209DC70474FF003004FF0010100EBFC
:0C04100001038842F0DC1E4640787D01AC
:04000005000003F9FB
:00000001FF
